{
  "contractName": "Random",
  "abi": [
    {
      "inputs": [],
      "stateMutability": "nonpayable",
      "type": "constructor"
    },
    {
      "inputs": [],
      "name": "randomNumber",
      "outputs": [
        {
          "internalType": "uint256",
          "name": "",
          "type": "uint256"
        }
      ],
      "stateMutability": "view",
      "type": "function",
      "constant": true
    },
    {
      "inputs": [
        {
          "internalType": "bytes32",
          "name": "requestId",
          "type": "bytes32"
        },
        {
          "internalType": "uint256",
          "name": "randomness",
          "type": "uint256"
        }
      ],
      "name": "rawFulfillRandomness",
      "outputs": [],
      "stateMutability": "nonpayable",
      "type": "function"
    },
    {
      "inputs": [
        {
          "internalType": "uint256",
          "name": "userProvidedSeed",
          "type": "uint256"
        }
      ],
      "name": "getRandomNumber",
      "outputs": [
        {
          "internalType": "bytes32",
          "name": "requestId",
          "type": "bytes32"
        }
      ],
      "stateMutability": "nonpayable",
      "type": "function"
    },
    {
      "inputs": [],
      "name": "getRandomNumberWithoutOracle",
      "outputs": [
        {
          "internalType": "uint256",
          "name": "",
          "type": "uint256"
        }
      ],
      "stateMutability": "view",
      "type": "function",
      "constant": true
    }
  ],
  "bytecode": "0x60c060405234801561001057600080fd5b5073dd3782915140c8f3b190b5d67eac6dc5760c46e973a36085f69e2889c224210f603d836748e7dc00888173ffffffffffffffffffffffffffffffffffffffff1660a08173ffffffffffffffffffffffffffffffffffffffff1660601b815250508073ffffffffffffffffffffffffffffffffffffffff1660808173ffffffffffffffffffffffffffffffffffffffff1660601b8152505050507f6c3699283bda56ad74f6b855546325b68d482e983852a7a82979cc4807b641f460001b60018190555067016345785d8a000060028190555060805160601c60a05160601c6106e26101176000398061010952806103ac5250806101dd528061037052506106e26000f3fe608060405234801561001057600080fd5b506004361061004c5760003560e01c806394985ddd14610051578063b37217a414610089578063ccbac9f5146100cb578063d7e723ee146100e9575b600080fd5b6100876004803603604081101561006757600080fd5b810190808035906020019092919080359060200190929190505050610107565b005b6100b56004803603602081101561009f57600080fd5b81019080803590602001909291905050506101d6565b6040518082815260200191505060405180910390f35b6100d3610309565b6040518082815260200191505060405180910390f35b6100f161030f565b6040518082815260200191505060405180910390f35b7f000000000000000000000000000000000000000000000000000000000000000073ffffffffffffffffffffffffffffffffffffffff163373ffffffffffffffffffffffffffffffffffffffff16146101c8576040517f08c379a000000000000000000000000000000000000000000000000000000000815260040180806020018281038252601f8152602001807f4f6e6c7920565246436f6f7264696e61746f722063616e2066756c66696c6c0081525060200191505060405180910390fd5b6101d28282610361565b5050565b60006002547f000000000000000000000000000000000000000000000000000000000000000073ffffffffffffffffffffffffffffffffffffffff166370a08231306040518263ffffffff1660e01b8152600401808273ffffffffffffffffffffffffffffffffffffffff16815260200191505060206040518083038186803b15801561026257600080fd5b505afa158015610276573d6000803e3d6000fd5b505050506040513d602081101561028c57600080fd5b8101908080519060200190929190505050116102f3576040517f08c379a00000000000000000000000000000000000000000000000000000000081526004018080602001828103825260268152602001806106876026913960400191505060405180910390fd5b6103026001546002548461036c565b9050919050565b60035481565b60004233604051602001808381526020018273ffffffffffffffffffffffffffffffffffffffff1660601b8152601401925050506040516020818303038152906040528051906020012060001c905090565b806003819055505050565b60007f000000000000000000000000000000000000000000000000000000000000000073ffffffffffffffffffffffffffffffffffffffff16634000aea07f000000000000000000000000000000000000000000000000000000000000000085878660405160200180838152602001828152602001925050506040516020818303038152906040526040518463ffffffff1660e01b8152600401808473ffffffffffffffffffffffffffffffffffffffff16815260200183815260200180602001828103825283818151815260200191508051906020019080838360005b8381101561046557808201518184015260208101905061044a565b50505050905090810190601f1680156104925780820380516001836020036101000a031916815260200191505b50945050505050602060405180830381600087803b1580156104b357600080fd5b505af11580156104c7573d6000803e3d6000fd5b505050506040513d60208110156104dd57600080fd5b810190808051906020019092919050505050600061050f8584306000808a815260200190815260200160002054610561565b90506105376001600080888152602001908152602001600020546105c590919063ffffffff16565b60008087815260200190815260200160002081905550610557858261064d565b9150509392505050565b600084848484604051602001808581526020018481526020018373ffffffffffffffffffffffffffffffffffffffff1681526020018281526020019450505050506040516020818303038152906040528051906020012060001c9050949350505050565b600080828401905083811015610643576040517f08c379a000000000000000000000000000000000000000000000000000000000815260040180806020018281038252601b8152602001807f536166654d6174683a206164646974696f6e206f766572666c6f77000000000081525060200191505060405180910390fd5b8091505092915050565b6000828260405160200180838152602001828152602001925050506040516020818303038152906040528051906020012090509291505056fe5472616e73616374696f6e2063616e63656c6564202d206e6f7420656e6f756768204c494e4ba2646970667358221220a6fc50e3289a268f1d5a59d1a6f84362edfff136258c0e0dde3d4147d0181e9164736f6c634300060c0033",
  "immutableReferences": {
    "198": [
      {
        "length": 32,
        "start": 477
      },
      {
        "length": 32,
        "start": 880
      }
    ],
    "200": [
      {
        "length": 32,
        "start": 265
      },
      {
        "length": 32,
        "start": 940
      }
    ]
  },
  "source": "// SPDX-License-Identifier: GPL-3.0\r\n\r\npragma solidity ^0.6.6;\r\nimport \"@chainlink/contracts/src/v0.6/VRFConsumerBase.sol\";\r\n\r\ncontract Random is VRFConsumerBase{\r\n    \r\n    bytes32 internal keyHash;\r\n    uint256 internal fee;\r\n    uint256 public randomNumber;\r\n\r\n    constructor()\r\n    \r\n    VRFConsumerBase(\r\n        0xdD3782915140c8f3b190B5D67eAc6dc5760C46E9, \r\n        0xa36085F69e2889c224210F603D836748e7dC0088\r\n    )\r\n    \r\n    public\r\n    {\r\n        keyHash = 0x6c3699283bda56ad74f6b855546325b68d482e983852a7a82979cc4807b641f4; \r\n        fee = 0.1 * 10 ** 18;\r\n    }\r\n\r\n    function fulfillRandomness(bytes32 requestId, uint256 randomness) internal override {\r\n        randomNumber = randomness;\r\n    }\r\n    \r\n    // returns a random number based on an oracle\r\n    function getRandomNumber(uint256 userProvidedSeed) public returns (bytes32 requestId){\r\n        require(LINK.balanceOf(address(this)) > fee, 'Transaction canceled - not enough LINK');      \r\n        return requestRandomness(keyHash, fee, userProvidedSeed);\r\n    }\r\n\r\n    // returns a \"random\" number based on an unsecure pattern\r\n    function getRandomNumberWithoutOracle() public view  returns (uint256) {\r\n        return uint256(keccak256(abi.encodePacked( now, msg.sender)));\r\n    }\r\n}",
  "sourcePath": "D:/Dapp-random-number-generator/contracts/Random.sol",
  "compiler": {
    "name": "solc",
    "version": "0.6.12+commit.27d51765.Emscripten.clang"
  },
  "schemaVersion": "3.3.4",
  "updatedAt": "2021-04-06T21:20:07.601Z",
  "networkType": "ethereum",
  "devdoc": {
    "kind": "dev",
    "methods": {},
    "version": 1
  },
  "userdoc": {
    "kind": "user",
    "methods": {},
    "version": 1
  }
}