{
  "contractName": "Random",
  "abi": [
    {
      "inputs": [],
      "stateMutability": "nonpayable",
      "type": "constructor"
    },
    {
      "anonymous": false,
      "inputs": [
        {
          "indexed": false,
          "internalType": "string",
          "name": "message",
          "type": "string"
        }
      ],
      "name": "LogInstanciated",
      "type": "event"
    },
    {
      "anonymous": false,
      "inputs": [
        {
          "indexed": false,
          "internalType": "bytes32",
          "name": "result",
          "type": "bytes32"
        }
      ],
      "name": "LogRandomNumber",
      "type": "event"
    },
    {
      "inputs": [],
      "name": "hashValue",
      "outputs": [
        {
          "internalType": "bytes32",
          "name": "",
          "type": "bytes32"
        }
      ],
      "stateMutability": "view",
      "type": "function",
      "constant": true
    },
    {
      "inputs": [
        {
          "internalType": "bytes32",
          "name": "requestId",
          "type": "bytes32"
        },
        {
          "internalType": "uint256",
          "name": "randomness",
          "type": "uint256"
        }
      ],
      "name": "rawFulfillRandomness",
      "outputs": [],
      "stateMutability": "nonpayable",
      "type": "function"
    },
    {
      "inputs": [
        {
          "internalType": "uint256",
          "name": "userProvidedSeed",
          "type": "uint256"
        }
      ],
      "name": "getRandomNumberBySeed",
      "outputs": [
        {
          "internalType": "bytes32",
          "name": "requestId",
          "type": "bytes32"
        }
      ],
      "stateMutability": "nonpayable",
      "type": "function"
    },
    {
      "inputs": [],
      "name": "getBadRandomNumber",
      "outputs": [
        {
          "internalType": "uint8",
          "name": "",
          "type": "uint8"
        }
      ],
      "stateMutability": "view",
      "type": "function",
      "constant": true
    },
    {
      "inputs": [],
      "name": "getRandomNumber",
      "outputs": [
        {
          "internalType": "bytes32",
          "name": "request",
          "type": "bytes32"
        }
      ],
      "stateMutability": "nonpayable",
      "type": "function"
    }
  ],
  "bytecode": "0x60c060405234801561001057600080fd5b5073dd3782915140c8f3b190b5d67eac6dc5760c46e973a36085f69e2889c224210f603d836748e7dc00888173ffffffffffffffffffffffffffffffffffffffff1660a08173ffffffffffffffffffffffffffffffffffffffff1660601b815250508073ffffffffffffffffffffffffffffffffffffffff1660808173ffffffffffffffffffffffffffffffffffffffff1660601b8152505050507f6c3699283bda56ad74f6b855546325b68d482e983852a7a82979cc4807b641f460001b60018190555067016345785d8a000060038190555060805160601c60a05160601c6108f461011c6000398061013b52806105be52508061020f52806103c9528061058252506108f46000f3fe608060405234801561001057600080fd5b50600436106100575760003560e01c80632b92b8e51461005c57806394985ddd1461007a578063dbdff2c1146100b2578063e8c86c84146100d0578063fcd2ba2414610112575b600080fd5b610064610133565b6040518082815260200191505060405180910390f35b6100b06004803603604081101561009057600080fd5b810190808035906020019092919080359060200190929190505050610139565b005b6100ba610208565b6040518082815260200191505060405180910390f35b6100fc600480360360208110156100e657600080fd5b81019080803590602001909291905050506103c2565b6040518082815260200191505060405180910390f35b61011a61053a565b604051808260ff16815260200191505060405180910390f35b60025481565b7f000000000000000000000000000000000000000000000000000000000000000073ffffffffffffffffffffffffffffffffffffffff163373ffffffffffffffffffffffffffffffffffffffff16146101fa576040517f08c379a000000000000000000000000000000000000000000000000000000000815260040180806020018281038252601f8152602001807f4f6e6c7920565246436f6f7264696e61746f722063616e2066756c66696c6c0081525060200191505060405180910390fd5b6102048282610573565b5050565b60006003547f000000000000000000000000000000000000000000000000000000000000000073ffffffffffffffffffffffffffffffffffffffff166370a08231306040518263ffffffff1660e01b8152600401808273ffffffffffffffffffffffffffffffffffffffff16815260200191505060206040518083038186803b15801561029457600080fd5b505afa1580156102a8573d6000803e3d6000fd5b505050506040513d60208110156102be57600080fd5b810190808051906020019092919050505011610325576040517f08c379a00000000000000000000000000000000000000000000000000000000081526004018080602001828103825260268152602001806108996026913960400191505060405180910390fd5b60003073ffffffffffffffffffffffffffffffffffffffff1663fcd2ba246040518163ffffffff1660e01b815260040160206040518083038186803b15801561036d57600080fd5b505afa158015610381573d6000803e3d6000fd5b505050506040513d602081101561039757600080fd5b810190808051906020019092919050505060ff1690506103bc6001546003548361057e565b91505090565b60006003547f000000000000000000000000000000000000000000000000000000000000000073ffffffffffffffffffffffffffffffffffffffff166370a08231306040518263ffffffff1660e01b8152600401808273ffffffffffffffffffffffffffffffffffffffff16815260200191505060206040518083038186803b15801561044e57600080fd5b505afa158015610462573d6000803e3d6000fd5b505050506040513d602081101561047857600080fd5b8101908080519060200190929190505050116104df576040517f08c379a00000000000000000000000000000000000000000000000000000000081526004018080602001828103825260268152602001806108996026913960400191505060405180910390fd5b7f477756649e8888b699e2d594867b0cd8b07d72da8ad8494857d4030f513beb8861050f6001546003548561057e565b6040518082815260200191505060405180910390a16105336001546003548461057e565b9050919050565b6000424460405160200180838152602001828152602001925050506040516020818303038152906040528051906020012060001c905090565b806004819055505050565b60007f000000000000000000000000000000000000000000000000000000000000000073ffffffffffffffffffffffffffffffffffffffff16634000aea07f000000000000000000000000000000000000000000000000000000000000000085878660405160200180838152602001828152602001925050506040516020818303038152906040526040518463ffffffff1660e01b8152600401808473ffffffffffffffffffffffffffffffffffffffff16815260200183815260200180602001828103825283818151815260200191508051906020019080838360005b8381101561067757808201518184015260208101905061065c565b50505050905090810190601f1680156106a45780820380516001836020036101000a031916815260200191505b50945050505050602060405180830381600087803b1580156106c557600080fd5b505af11580156106d9573d6000803e3d6000fd5b505050506040513d60208110156106ef57600080fd5b81019080805190602001909291905050505060006107218584306000808a815260200190815260200160002054610773565b90506107496001600080888152602001908152602001600020546107d790919063ffffffff16565b60008087815260200190815260200160002081905550610769858261085f565b9150509392505050565b600084848484604051602001808581526020018481526020018373ffffffffffffffffffffffffffffffffffffffff1681526020018281526020019450505050506040516020818303038152906040528051906020012060001c9050949350505050565b600080828401905083811015610855576040517f08c379a000000000000000000000000000000000000000000000000000000000815260040180806020018281038252601b8152602001807f536166654d6174683a206164646974696f6e206f766572666c6f77000000000081525060200191505060405180910390fd5b8091505092915050565b6000828260405160200180838152602001828152602001925050506040516020818303038152906040528051906020012090509291505056fe5472616e73616374696f6e2063616e63656c6564202d206e6f7420656e6f756768204c494e4ba26469706673582212204c6033f03d650b59c3cb0a4094c8421d426b307d308ff8a62b9a3c19a55bf22564736f6c634300060c0033",
  "immutableReferences": {
    "254": [
      {
        "length": 32,
        "start": 527
      },
      {
        "length": 32,
        "start": 969
      },
      {
        "length": 32,
        "start": 1410
      }
    ],
    "256": [
      {
        "length": 32,
        "start": 315
      },
      {
        "length": 32,
        "start": 1470
      }
    ]
  },
  "source": "// SPDX-License-Identifier: GPL-3.0\r\n\r\npragma solidity ^0.6.6;\r\nimport \"@chainlink/contracts/src/v0.6/VRFConsumerBase.sol\";\r\n\r\ncontract Random is VRFConsumerBase{\r\n    \r\n    bytes32 internal keyHash;\r\n    bytes32 public hashValue;\r\n    uint256 internal fee;\r\n    uint256 randomNumber;\r\n\r\n    event LogInstanciated(string message);\r\n    event LogRandomNumber(bytes32 result);\r\n\r\n    constructor()\r\n    \r\n    VRFConsumerBase(\r\n        0xdD3782915140c8f3b190B5D67eAc6dc5760C46E9, \r\n        0xa36085F69e2889c224210F603D836748e7dC0088\r\n    )\r\n    \r\n    public\r\n    {\r\n        keyHash = 0x6c3699283bda56ad74f6b855546325b68d482e983852a7a82979cc4807b641f4; \r\n        fee = 0.1 * 10 ** 18;\r\n    }\r\n\r\n    function getRandomNumberBySeed(uint256 userProvidedSeed) public returns (bytes32 requestId){\r\n        require(LINK.balanceOf(address(this)) > fee, 'Transaction canceled - not enough LINK');      \r\n        emit LogRandomNumber(requestRandomness(keyHash, fee, userProvidedSeed));  \r\n        return requestRandomness(keyHash, fee, userProvidedSeed);\r\n    }\r\n\r\n    function fulfillRandomness(bytes32 requestId, uint256 randomness) internal override {\r\n        randomNumber = randomness;\r\n    }\r\n    \r\n    // returns a \"random\" number based on an unsecure pattern\r\n    function getBadRandomNumber() public view  returns (uint8) {\r\n        return uint8(uint256(keccak256(abi.encodePacked( block.timestamp, block.difficulty))));\r\n    }\r\n\r\n    function getRandomNumber() public returns (bytes32 request) {\r\n        require(LINK.balanceOf(address(this)) > fee, 'Transaction canceled - not enough LINK');        \r\n        uint256 badRandomNumber = uint256(this.getBadRandomNumber());\r\n        return requestRandomness(keyHash, fee, badRandomNumber);\r\n    }\r\n}",
  "sourcePath": "D:/Dapp-random-number-generator/contracts/Random.sol",
  "compiler": {
    "name": "solc",
    "version": "0.6.12+commit.27d51765.Emscripten.clang"
  },
  "schemaVersion": "3.3.4",
  "updatedAt": "2021-04-05T16:17:03.330Z",
  "networkType": "ethereum",
  "devdoc": {
    "kind": "dev",
    "methods": {},
    "version": 1
  },
  "userdoc": {
    "kind": "user",
    "methods": {},
    "version": 1
  }
}